:100000000C9454000C947C000C947C000C947C00A8
:100010000C947C000C947C000C947C000C947C0070
:100020000C947C000C947C000C947C000C947C0060
:100030000C947C000C947C000C947C000C947C0050
:100040000C941B020C947C000C948B020C946502A3
:100050000C947C000C947C000C947C000C947C0030
:100060000C947C000C947C0000000000250028000B
:100070002B0000000000240027002A0004040404D0
:100080000404040402020202020203030303030342
:10009000010204081020408001020408102001021F
:1000A00004081020BD02B90411241FBECFEFD8E010
:1000B000DEBFCDBF21E0A8E4B1E001C01D92A83FA2
:1000C000B207E1F711E0A0E0B1E0ECE1FEE002C030
:1000D00005900D92A834B107D9F710E0C3E5D0E040
:1000E00004C02197FE010E94F604C235D107C9F76A
:1000F0000E9433030C9401070C9400000895CF92E2
:10010000DF92EF92FF920F931F93CF93DF936C01D7
:100110007A018B01C0E0D0E0CE15DF0581F0D80177
:100120006D918D01D601ED91FC910190F081E02D52
:10013000C6010995892B11F02196EECF7E01C701EA
:10014000DF91CF911F910F91FF90EF90DF90CF90B3
:10015000089580E090E00895FC01538D448D252F93
:1001600030E0842F90E0821B930B541710F0CF9651
:10017000089501970895FC01918D828D981761F083
:10018000828DDF01A80FB11D5D968C91928D9F5FCE
:100190009F73928F90E008958FEF9FEF08952FB790
:1001A000F89480914D0190914E01A0914F01B09132
:1001B00050012FBF8093590190935A01A0935B0186
:1001C000B0935C0181E591E00E94BB0097FF26C0DF
:1001D0002FB7F89480914D0190914E01A0914F015D
:1001E000B09150012FBF4091590150915A01609137
:1001F0005B0170915C01841B950BA60BB70B4091C2
:100200005501509156016091570170915801841722
:100210009507A607B707B0F28FEF9FEF0895FC018F
:10022000918D828D981731F0828DE80FF11D858DAB
:1002300090E008958FEF9FEF0895FC01918D228D3E
:10024000892F90E0805C9F4F821B91098F739927C3
:10025000089581E591E00E941D0121E0892B09F4B8
:1002600020E0822F0895FC01848DDF01A80FB11DCD
:10027000A35ABF4F2C91848D90E001968F739927DC
:10028000848FA689B7892C93A089B1898C918370BA
:1002900080648C93938D848D981306C00288F389B3
:1002A000E02D80818F7D80830895EF92FF920F93E0
:1002B0001F93CF93DF93EC0181E0888F9B8D8C8D12
:1002C000981305C0E889F989808185FD26C0F62E3E
:1002D0000B8D10E00F5F1F4F0F731127E02E8C8DD9
:1002E000E8120CC00FB607FCFACFE889F9898081C3
:1002F00085FFF5CFCE010E943301F1CF8B8DFE013A
:10030000E80FF11DE35AFF4FF0829FB7F8940B8F6F
:10031000EA89FB89808180620AC09FB7F894EE89E0
:10032000FF896083E889F989808183708064808394
:100330009FBF81E090E0DF91CF911F910F91FF90DF
:10034000EF900895CF93DF93EC01888D8823C9F057
:10035000EA89FB89808185FD05C0A889B9898C91CE
:1003600086FD0FC00FB607FCF5CF808185FFF2CF69
:10037000A889B9898C9185FFEDCFCE010E94330108
:10038000E7CFDF91CF91089580E090E0892B29F0AD
:100390000E94290181110C940000089542E050E070
:1003A00068E171E081E591E00C947F00CF93DF93E9
:1003B000009779F0FC0101900020E9F73197AF0137
:1003C000481B590BBC0181E591E00E947F00EC01C4
:1003D00002C0C0E0D0E00E94CE018C0F9D1FDF91D3
:1003E000CF9108950E94E3060F931F93CF93DF935D
:1003F000EC0188819981009729F02A813B81261799
:10040000370788F48B016F5F7F4F0E941D060097AE
:1004100061F0998388831B830A832C813D81232B80
:1004200011F4FC01108281E001C080E0DF91CF91E6
:100430001F910F9108951F920F920FB60F921124E2
:100440002F933F938F939F93AF93BF9380914D01D1
:1004500090914E01A0914F01B091500130914C010B
:1004600023E0230F2D3720F40196A11DB11D05C0F7
:1004700026E8230F0296A11DB11D20934C01809305
:100480004D0190934E01A0934F01B0935001809184
:10049000480190914901A0914A01B0914B01019608
:1004A000A11DB11D8093480190934901A0934A0179
:1004B000B0934B01BF91AF919F918F913F912F913D
:1004C0000F900FBE0F901F9018951F920F920FB6AE
:1004D0000F9211242F933F934F935F936F937F93CA
:1004E0008F939F93AF93BF93EF93FF9381E591E039
:1004F0000E943301FF91EF91BF91AF919F918F9136
:100500007F916F915F914F913F912F910F900FBE0F
:100510000F901F9018951F920F920FB60F921124F3
:100520002F938F939F93EF93FF93E0916101F0914D
:1005300062018081E0916701F091680182FD12C043
:10054000908180916A018F5F8F7320916B01821778
:1005500051F0E0916A01F0E0EF5AFE4F958F8093E1
:100560006A0101C08081FF91EF919F918F912F913E
:100570000F900FBE0F901F9018951092540110927B
:10058000530188EE93E0A0E0B0E080935501909392
:100590005601A0935701B09358018AE091E09093DF
:1005A00052018093510185EC90E090935E0180931D
:1005B0005D0184EC90E09093600180935F0180EC9A
:1005C00090E0909362018093610181EC90E09093C0
:1005D00064018093630182EC90E0909366018093C4
:1005E000650186EC90E0909368018093670110921A
:1005F0006A0110926B0110926C0110926D011092C1
:10060000EF011092EE011092F1011092F0011092A0
:10061000F3011092F20160E070E08EEE91E00E9432
:10062000F4012091EE013091EF01811113C02115E9
:10063000310519F0C9010E9494051092EF01109242
:10064000EE011092F3011092F2011092F10110925A
:10065000F00108951092F3011092F2016AE171E045
:10066000C9010C94FA06CF93DF93CDB7DEB7289774
:100670000FB6F894DEBF0FBECDBF789484B582600C
:1006800084BD84B5816084BD85B5826085BD85B536
:10069000816085BD80916E00816080936E001092B4
:1006A000810080918100826080938100809181002F
:1006B00081608093810080918000816080938000C0
:1006C0008091B10084608093B1008091B00081601E
:1006D0008093B00080917A00846080937A0080914A
:1006E0007A00826080937A0080917A0081608093A2
:1006F0007A0080917A00806880937A001092C1001D
:10070000E0916101F091620182E08083E0915D01FE
:10071000F0915E011082E0915F01F09160018FEC39
:10072000808310926901E0916501F091660186E095
:100730008083E0916301F091640180818061808316
:10074000E0916301F0916401808188608083E09191
:100750006301F0916401808180688083E09163018E
:10076000F091640180818F7D8083E8E9F0E024913D
:10077000E4E8F0E08491882399F090E0880F991FD5
:10078000FC01EE58FF4FA591B491FC01E859FF4FD1
:10079000859194918FB7F894EC91E22BEC938FBFF5
:1007A0008BE191E00E94D60181E591E00E941D015C
:1007B000181619060CF077C01A8219821C821B8247
:1007C0001E821D8260E070E0CE0101960E94F4015D
:1007D00029813A8181110DC02115310519F0C90116
:1007E0000E9494051A8219821E821D821C821B821D
:1007F00007C01E821D826AE171E0C9010E94FA06EB
:100800000E94CF0097FD1BC08F8318860D811E812B
:100810000F5F1F4FB801CE0101960E94F40188239B
:1008200079F329813A818D819E81BE01695F7F4F75
:10083000820F931F0E94FA061E830D83E1CF8091E1
:10084000EE019091EF01009741F069817A81611585
:10085000710509F07BC00E94940589819A8190936B
:10086000EF018093EE018B819C819093F101809345
:10087000F0018D819E819093F3018093F2011A82A1
:10088000198289819A810E9494054091F2015091C8
:10089000F3016091EE017091EF0181E591E00E941A
:1008A0007F000E94CE018091F2019091F301892B8B
:1008B00071F06EE271E08091EE019091EF010E9483
:1008C000F106892B21F486E391E00E94D601809104
:1008D000F2019091F301892B71F06AE371E080914C
:1008E000EE019091EF010E94F106892B21F483E43F
:1008F00091E00E94D60160E070E08EEE91E00E94EF
:10090000F4012091EE013091EF01811113C0211506
:10091000310519F0C9010E9494051092EF0110925F
:10092000EE011092F3011092F2011092F101109277
:10093000F00109C01092F3011092F2016AE171E036
:10094000C9010E94FA060E94C4012ECF4091F00115
:100950005091F1012D813E814217530708F47BCF5E
:100960000E94FA068D819E819093F3018093F2019B
:1009700088CF8091EE019091EF010C9494052F9215
:100980003F924F925F926F927F928F929F92AF921F
:10099000BF92CF92DF92EF92FF920F931F93CF936C
:1009A000DF93CDB7DEB7CA1BDB0B0FB6F894DEBF03
:1009B0000FBECDBF09942A88398848885F846E8429
:1009C0007D848C849B84AA84B984C884DF80EE8073
:1009D000FD800C811B81AA81B981CE0FD11D0FB67C
:1009E000F894DEBF0FBECDBFED010895EE0FFF1FDF
:1009F0000590F491E02D09940F931F93CF93DF930B
:100A00008230910510F482E090E0E091F601F091DF
:100A1000F70120E030E0A0E0B0E0309719F140812C
:100A200051810281138148175907C8F0841795072F
:100A300069F4109731F012960C93129713961C9349
:100A400027C00093F6011093F70122C0211531054C
:100A500019F04217530718F49A01BD01EF01DF01A5
:100A6000F801DBCF21153105F9F0281B390B2430B3
:100A7000310580F48A819B816115710521F0FB01AC
:100A80009383828304C09093F7018093F601FE0163
:100A9000329644C0FE01E20FF31F819391932250DE
:100AA0003109398328833AC02091F4013091F5014E
:100AB000232B41F420910201309103013093F50181
:100AC0002093F4012091000130910101211531059D
:100AD00041F42DB73EB74091040150910501241B0C
:100AE000350BE091F401F091F501E217F307A0F462
:100AF0002E1B3F0B2817390778F0AC014E5F5F4F74
:100B00002417350748F04E0F5F1F5093F5014093AF
:100B1000F4018193919302C0E0E0F0E0CF01DF9116
:100B2000CF911F910F910895CF93DF93009709F410
:100B300081C0FC01329713821282A091F601B0911C
:100B4000F701109781F420813181820F931F20914A
:100B5000F4013091F5012817390751F5F093F501AB
:100B6000E093F40167C0ED0120E030E0CE17DF072D
:100B700040F44A815B819E0141155105F1F0EA0183
:100B8000F5CFD383C28340815181840F951FC8174D
:100B9000D90759F488819981840F951F0296918312
:100BA00080838A819B81938382832115310529F477
:100BB000F093F701E093F6013DC0E901FB83EA837E
:100BC00049915991C40FD51FEC17FD0761F480813D
:100BD0009181840F951F0296E90199838883828110
:100BE00093819B838A83E0E0F0E012968D919C9143
:100BF0001397009719F0FD01DC01F7CF8D919C91BF
:100C000011979D012E5F3F4F820F931F2091F4019A
:100C10003091F5012817390769F4309729F41092BB
:100C2000F7011092F60102C013821282B093F5010F
:100C3000A093F401DF91CF910895A0E0B0E0E3E24A
:100C4000F6E00C94C304EC01009721F4CB010E9460
:100C5000FC04B4C0FC01E60FF71F9C0122503109CF
:100C6000E217F30708F4A8C0D9010D911C91119760
:100C700006171707B0F00530110508F49BC0C8012E
:100C800004978617970708F495C002501109061BB0
:100C9000170B019311936D937C93CF010E949405E0
:100CA00089C05B01A01AB10A4C01800E911EA0916F
:100CB000F601B091F701612C712CE12CF12C109709
:100CC00009F446C08D919C911197A815B905B1F50D
:100CD0006C0142E0C40ED11CCA14DB0478F14C0153
:100CE0008A189B08640142E0C40ED11C1296BC9085
:100CF00012971396AC91B5E0CB16D10440F0B282B6
:100D0000A38391828082D9016D937C9309C00E5F89
:100D10001F4F800F911FF90191838083EB2DFA2FD4
:100D2000E114F10431F0D7011396FC93EE9312977E
:100D300041C0F093F701E093F6013CC068167906D4
:100D400008F43C017D0112960D90BC91A02DB7CF07
:100D50008091F4019091F50188169906E1F46616E8
:100D60007706C8F48091000190910101009741F449
:100D70008DB79EB74091040150910501841B950BDE
:100D8000E817F907C8F4F093F501E093F401F901CD
:100D9000718360830FC0CB010E94FC047C0100972B
:100DA00059F0A801BE010E94E806CE010E949405F8
:100DB000C70104C0CE0102C080E090E0CDB7DEB72D
:100DC000EEE00C94DF0481E090E0F8940C940107CD
:100DD000FB01DC0102C001900D9241505040D8F758
:100DE0000895FB01DC018D91019080190110D9F368
:100DF000990B0895FB01DC0101900D920020E1F7B1
:100E0000089510E0C3E5D0E004C0FE010E94F6049E
:0C0E10002196C435D107C9F7F894FFCF34
:100E1C000000F80180000000000055017F00AC00CC
:100E2C00A2011D01BB000F010D0A00456E74657215
:100E3C0020312F6677642F2F322F62776400666F14
:100E4C00727761726400467764006261636B7761EC
:080E5C0072640042776400009B
:107E0000112484B714BE81FFF0D085E080938100F7
:107E100082E08093C00088E18093C10086E0809377
:107E2000C20080E18093C4008EE0C9D0259A86E02C
:107E300020E33CEF91E0309385002093840096BBD3
:107E4000B09BFECF1D9AA8958150A9F7CC24DD24C4
:107E500088248394B5E0AB2EA1E19A2EF3E0BF2EE7
:107E6000A2D0813461F49FD0082FAFD0023811F036
:107E7000013811F484E001C083E08DD089C08234E0
:107E800011F484E103C0853419F485E0A6D080C0E4
:107E9000853579F488D0E82EFF2485D0082F10E0AE
:107EA000102F00270E291F29000F111F8ED06801E7
:107EB0006FC0863521F484E090D080E0DECF843638
:107EC00009F040C070D06FD0082F6DD080E0C81688
:107ED00080E7D80618F4F601B7BEE895C0E0D1E017
:107EE00062D089930C17E1F7F0E0CF16F0E7DF06D8
:107EF00018F0F601B7BEE89568D007B600FCFDCFD4
:107F0000A601A0E0B1E02C9130E011968C91119780
:107F100090E0982F8827822B932B1296FA010C0160
:107F200087BEE89511244E5F5F4FF1E0A038BF0790
:107F300051F7F601A7BEE89507B600FCFDCF97BE46
:107F4000E89526C08437B1F42ED02DD0F82E2BD052
:107F50003CD0F601EF2C8F010F5F1F4F84911BD097
:107F6000EA94F801C1F70894C11CD11CFA94CF0C13
:107F7000D11C0EC0853739F428D08EE10CD085E9AC
:107F80000AD08FE07ACF813511F488E018D01DD067
:107F900080E101D065CF982F8091C00085FFFCCF94
:107FA0009093C60008958091C00087FFFCCF809118
:107FB000C00084FD01C0A8958091C6000895E0E648
:107FC000F0E098E1908380830895EDDF803219F02E
:107FD00088E0F5DFFFCF84E1DECF1F93182FE3DFCA
:107FE0001150E9F7F2DF1F91089580E0E8DFEE27F6
:047FF000FF270994CA
:027FFE00040479
:0400000300007E007B
:00000001FF
